:020000040800F2
:100000000000022071460008154500081745000849
:10001000194500081B4500081D45000800000000A8
:100020000000000000000000000000001F45000864
:100030002145000800000000234500082545000870
:10004000C1460008C1460008C1460008C146000874
:10005000C1460008C1460008C1460008C146000864
:10006000C1460008C1460008C146000829450008ED
:1000700035450008414500084D450008C1460008C7
:10008000C1460008C1460008C1460008C146000834
:1000900059450008C1460008C1460008C14600088D
:1000A000C1460008C1460008C1460008C146000814
:1000B000C1460008C1460008C1460008C146000804
:1000C000C146000865450008C1460008C146000851
:1000D000C1460008714500087D450008C14600087A
:1000E000C1460008C1460008C1460008C1460008D4
:1000F000C1460008C1460008C1460008C1460008C4
:10010000C1460008C1460008C1460008C1460008B3
:10011000C1460008C1460008C1460008C1460008A3
:1001200089450008C1460008C1460008C1460008CC
:10013000C1460008C1460008C1460008C146000883
:10014000C1460008C1460008C1460008C146000873
:10015000C1460008C1460008C1460008C146000863
:10016000C1460008C1460008C1460008C146000853
:10017000C1460008C1460008C1460008C146000843
:10018000C1460008C1460008C1460008C146000833
:10019000C1460008C1460008C1460008C146000823
:1001A000C1460008C1460008C1460008C146000813
:1001B000C1460008C1460008C1460008C146000803
:1001C000C1460008C1460008C1460008C1460008F3
:0801D000C1460008C146000809
:1001E00010B5054C237833B9044B13B10448AFF371
:1001F00000800123237010BD540300200000000084
:10020000D4DE000808B5034B1BB103490348AFF324
:10021000008008BD0000000058030020D4DE000864
:1002200001F0FF01102A2BDB10F0070F08D010F8A7
:10023000013B013A8B422DD010F0070F42B3F6D1AB
:10024000F0B441EA012141EA014122F007047FF0C4
:1002500000070023F0E80256083C85EA010586EA1B
:10026000010685FA47F5A3FA87F586FA47F6A5FA57
:1002700087F68EB9EED1F0BC01F0FF0102F0070263
:1002800032B110F8013B013A83EA010313B1F8D10E
:100290000020704701387047002D06BF35460338EF
:1002A000073815F0010F07D1013015F4807F02BF28
:1002B000013015F4C03F0130F0BC0138704700BF79
:1002C000034613F8012B002AFBD1181A0138704796
:1002D00081F0004102E000BF83F0004330B54FEAF7
:1002E00041044FEA430594EA050F08BF90EA020F64
:1002F0001FBF54EA000C55EA020C7FEA645C7FEAF7
:10030000655C00F0E2804FEA5454D4EB5555B8BF19
:100310006D420CDD2C4480EA020281EA030382EA8A
:10032000000083EA010180EA020281EA0303362D1C
:1003300088BF30BD11F0004F4FEA01314FF4801CEF
:100340004CEA113102D0404261EB410113F0004F01
:100350004FEA03334CEA133302D0524263EB4303B8
:1003600094EA050F00F0A780A4F10104D5F1200E56
:100370000DDB02FA0EFC22FA05F2801841F10001B1
:1003800003FA0EF2801843FA05F359410EE0A5F185
:1003900020050EF1200E012A03FA0EFC28BF4CF0B6
:1003A000020C43FA05F3C01851EBE37101F000456C
:1003B00007D54FF0000EDCF1000C7EEB00006EEB79
:1003C0000101B1F5801F1BD3B1F5001F0CD3490803
:1003D0005FEA30004FEA3C0C04F101044FEA44525A
:1003E00012F5800F80F09A80BCF1004F08BF5FEAE1
:1003F000500C50F1000041EB045141EA050130BDC1
:100400005FEA4C0C404141EB0101013C28BFB1F5D2
:10041000801FE9D291F0000F04BF01460020B1FA1D
:1004200081F308BF2033A3F10B03B3F120020CDAF0
:100430000C3208DD02F1140CC2F10C0201FA0CF0CE
:1004400021FA02F10CE002F11402D8BFC2F1200C33
:1004500001FA02F120FA0CFCDCBF41EA0C019040E9
:10046000E41AA2BF01EB0451294330BD6FEA040432
:100470001F3C1CDA0C340EDC04F11404C4F120021D
:1004800020FA04F001FA02F340EA030021FA04F32F
:1004900045EA030130BDC4F10C04C4F1200220FA86
:1004A00002F001FA04F340EA0300294630BD21FAC4
:1004B00004F0294630BD94F0000F83F4801306BF8A
:1004C00081F480110134013D4EE77FEA645C18BF7E
:1004D0007FEA655C29D094EA050F08BF90EA020F15
:1004E00005D054EA000C04BF1946104630BD91EA0D
:1004F000030F1EBF0021002030BD5FEA545C05D110
:100500004000494128BF41F0004130BD14F580044E
:100510003CBF01F5801130BD01F0004545F0FE41C2
:1005200041F470014FF0000030BD7FEA645C1ABFF7
:10053000194610467FEA655C1CBF0B46024650EA2E
:10054000013406BF52EA033591EA030F41F400215A
:1005500030BD00BF90F0000F04BF0021704730B5E0
:100560004FF4806404F132044FF000054FF00001B5
:1005700050E700BF90F0000F04BF0021704730B576
:100580004FF4806404F1320410F0004548BF40424B
:100590004FF000013EE700BF42004FEAE2014FEAA0
:1005A00031014FEA02701FBF12F07F4393F07F4F7B
:1005B00081F06051704732F07F4208BF704793F07E
:1005C0007F4F04BF41F40021704730B54FF4607491
:1005D00001F0004521F000411CE700BF50EA010294
:1005E00008BF704730B54FF000050AE050EA01023D
:1005F00008BF704730B511F0004502D5404261EBAD
:1006000041014FF4806404F132045FEA915C3FF4ED
:10061000D8AE4FF003025FEADC0C18BF03325FEA8A
:10062000DC0C18BF033202EBDC02C2F1200300FA3B
:1006300003FC20FA02F001FA03FE40EA0E0021FA60
:1006400002F11444BDE600BF70B54FF0FF0C4CF44E
:10065000E06C1CEA11541DBF1CEA135594EA0C0F00
:1006600095EA0C0F00F0DEF82C4481EA030621EA3B
:100670004C5123EA4C5350EA013518BF52EA033576
:1006800041F4801143F4801338D0A0FB02CE4FF028
:100690000005E1FB02E506F00042E0FB03E54FF058
:1006A0000006E1FB03569CF0000F18BF4EF0010E50
:1006B000A4F1FF04B6F5007F64F5407404D25FEA4C
:1006C0004E0E6D4146EB060642EAC62141EA5551FF
:1006D0004FEAC52040EA5E504FEACE2EB4F1FD0C41
:1006E00088BFBCF5E06F1ED8BEF1004F08BF5FEABF
:1006F000500E50F1000041EB045170BD06F0004671
:1007000046EA010140EA020081EA0301B4EB5C041D
:10071000C2BFD4EB0C0541EA045170BD41F4801115
:100720004FF0000E013C00F3AB8014F1360FDEBF3A
:10073000002001F0004170BDC4F10004203C35DA16
:100740000C341BDC04F11404C4F1200500FA05F399
:1007500020FA04F001FA05F240EA020001F000423A
:1007600021F0004110EBD37021FA04F642EB0601B0
:100770005EEA430E08BF20EAD37070BDC4F10C04DA
:10078000C4F1200500FA04F320FA05F001FA04F29E
:1007900040EA020001F0004110EBD37041F100018A
:1007A0005EEA430E08BF20EAD37070BDC4F1200595
:1007B00000FA05F24EEA020E20FA04F301FA05F2FD
:1007C00043EA020321FA04F001F0004121FA04F2A5
:1007D00020EA020000EBD3705EEA430E08BF20EA75
:1007E000D37070BD94F0000F0FD101F000464000AF
:1007F00041EB010111F4801F08BF013CF7D041EA31
:10080000060195F0000F18BF704703F00046520034
:1008100043EB030313F4801F08BF013DF7D043EA05
:100820000603704794EA0C0F0CEA135518BF95EABB
:100830000C0F0CD050EA410618BF52EA4306D1D142
:1008400081EA030101F000414FF0000070BD50EA61
:10085000410606BF1046194652EA430619D094EAEB
:100860000C0F02D150EA013613D195EA0C0F05D1D5
:1008700052EA03361CBF104619460AD181EA030129
:1008800001F0004141F0FE4141F470014FF00000E1
:1008900070BD41F0FE4141F4780170BD70B54FF07C
:1008A000FF0C4CF4E06C1CEA11541DBF1CEA1355FC
:1008B00094EA0C0F95EA0C0F00F0A7F8A4EB0504DE
:1008C00081EA030E52EA03354FEA013100F08880D5
:1008D0004FEA03334FF0805545EA131343EA12639E
:1008E0004FEA022245EA111545EA10654FEA002653
:1008F0000EF000419D4208BF964244F1FD0404F50C
:10090000407402D25B084FEA3202B61A65EB030567
:100910005B084FEA32024FF480104FF4002CB6EB24
:10092000020E75EB030E22BFB61A754640EA0C00A4
:100930005B084FEA3202B6EB020E75EB030E22BFE4
:10094000B61A754640EA5C005B084FEA3202B6EB25
:10095000020E75EB030E22BFB61A754640EA9C00E4
:100960005B084FEA3202B6EB020E75EB030E22BFB4
:10097000B61A754640EADC0055EA060E18D04FEA72
:10098000051545EA16754FEA06164FEAC30343EA12
:1009900052734FEAC2025FEA1C1CC0D111F4801FDF
:1009A0000BD141EA00014FF000004FF0004CB6E7D8
:1009B00011F4801F04BF01430020B4F1FD0C88BF77
:1009C000BCF5E06F3FF6AFAEB5EB030C04BFB6EB82
:1009D000020C5FEA500C50F1000041EB045170BD75
:1009E0000EF0004E4EEA113114EB5C04C2BFD4EBA2
:1009F0000C0541EA045170BD41F480114FF0000E26
:100A0000013C90E645EA060E8DE60CEA135594EAA1
:100A10000C0F08BF95EA0C0F3FF43BAF94EA0C0FA4
:100A20000AD150EA01347FF434AF95EA0C0F7FF419
:100A300025AF104619462CE795EA0C0F06D152EA6D
:100A400003353FF4FDAE1046194622E750EA410651
:100A500018BF52EA43067FF4C5AE50EA41047FF462
:100A60000DAF52EA43057FF4EBAE12E74FF0FF3CC7
:100A700006E000BF4FF0010C02E000BF4FF0010C98
:100A80004DF804CD4FEA410C7FEA6C5C4FEA430C11
:100A900018BF7FEA6C5C1BD001B050EA410C0CBF60
:100AA00052EA430C91EA030F02BF90EA020F0020C2
:100AB000704710F1000F91EA030F58BF994208BF29
:100AC00090422CBFD8176FEAE37040F001007047E6
:100AD0004FEA410C7FEA6C5C02D150EA013C07D13D
:100AE0004FEA430C7FEA6C5CD6D152EA033CD3D088
:100AF0005DF8040B704700BF8446104662468C4682
:100B00001946634600E000BF01B5FFF7B7FF0028B4
:100B100048BF10F1000F01BD4DF808EDFFF7F4FFDD
:100B20000CBF012000205DF808FB00BF4DF808ED68
:100B3000FFF7EAFF34BF012000205DF808FB00BF8B
:100B40004DF808EDFFF7E0FF94BF012000205DF8AD
:100B500008FB00BF4DF808EDFFF7CEFF94BF012062
:100B600000205DF808FB00BF4DF808EDFFF7C4FF5B
:100B700034BF012000205DF808FB00BF4FEA410CA4
:100B80007FEA6C5C02D150EA013C0AD14FEA430C87
:100B90007FEA6C5C02D152EA033C02D14FF00000C4
:100BA00070474FF0010070474FEA410212F5001202
:100BB00015D211D56FF47873B3EB625212D94FEAA4
:100BC000C12343F0004343EA505311F0004F23FA8E
:100BD00002F018BF404270474FF00000704750EAE3
:100BE000013005D111F0004008BF6FF000407047A0
:100BF0004FF00000704700BF4FEA4102B2F1E043FE
:100C000024BFB3F5001CDCF1FE5C0DD901F0004CF3
:100C10004FEAC0024CEA5070B2F1004F40EB830043
:100C200008BF20F00100704711F0804F21D113F16F
:100C30003872BCBF01F00040704741F480114FEAA8
:100C40005252C2F11802C2F1200C10FA0CF320FA31
:100C500002F018BF40F001004FEAC1234FEAD3234E
:100C600003FA0CFC40EA0C0023FA02F34FEA4303B8
:100C7000CCE77FEA625307D150EA01331EBF4FF041
:100C8000FE4040F44000704701F0004040F0FE405C
:100C900040F40000704700BF53B94AB9002908BFAB
:100CA00000281CBF4FF0FF314FF0FF3000F074B947
:100CB000ADF1080C6DE904CE00F006F8DDF804E0B3
:100CC000DDE9022304B070472DE9F047089D044692
:100CD0008E46002B4DD18A42944669D9B2FA82F2EF
:100CE00052B101FA02F3C2F1200120FA01F10CFA2B
:100CF00002FC41EA030E94404FEA1C48210CBEFB63
:100D0000F8F61FFA8CF708FB16E341EA034306FBEB
:100D100007F199420AD91CEB030306F1FF3080F07A
:100D20001F81994240F21C81023E63445B1AA4B2C7
:100D3000B3FBF8F008FB103344EA034400FB07F769
:100D4000A7420AD91CEB040400F1FF3380F00A81AA
:100D5000A74240F207816444023840EA0640E41B9F
:100D600000261DB1D4400023C5E900433146BDE84B
:100D7000F0878B4209D9002D00F0EF800026C5E9ED
:100D8000000130463146BDE8F087B3FA83F6002E05
:100D90004AD18B4202D3824200F2F980841A61EB7D
:100DA000030301209E46002DE0D0C5E9004EDDE79B
:100DB00002B9FFDEB2FA82F2002A40F09280A1EB83
:100DC0000C014FEA1C471FFA8CFE0126200CB1FBD8
:100DD000F7F307FB131140EA01410EFB03F08842D1
:100DE00008D91CEB010103F1FF3802D2884200F25E
:100DF000CB804346091AA4B2B1FBF7F007FB1011F0
:100E000044EA01440EFB00FEA64508D91CEB04048D
:100E100000F1FF3102D2A64500F2BB800846A4EBE8
:100E20000E0440EA03409CE7C6F12007B34022FAD3
:100E300007FC4CEA030C20FA07F401FA06F31C4302
:100E4000F9404FEA1C4900FA06F3B1FBF9F8200C0F
:100E50001FFA8CFE09FB181140EA014108FB0EF055
:100E6000884202FA06F20BD91CEB010108F1FF3AA5
:100E700080F08880884240F28580A8F102086144B1
:100E8000091AA4B2B1FBF9F009FB101144EA0141BF
:100E900000FB0EFE8E4508D91CEB010100F1FF346A
:100EA0006CD28E456AD90238614440EA0840A0FB02
:100EB0000294A1EB0E01A142C846A64656D353D0D8
:100EC0005DB1B3EB080261EB0E0101FA07F722FAFC
:100ED00006F3F1401F43C5E9007100263146BDE825
:100EE000F087C2F12003D8400CFA02FC21FA03F388
:100EF000914001434FEA1C471FFA8CFEB3FBF7F009
:100F000007FB10360B0C43EA064300FB0EF69E422D
:100F100004FA02F408D91CEB030300F1FF382FD2C6
:100F20009E422DD9023863449B1B89B2B3FBF7F66E
:100F300007FB163341EA034106FB0EF38B4208D947
:100F40001CEB010106F1FF3816D28B4214D9023E88
:100F50006144C91A46EA004638E72E46284605E7A6
:100F60000646E3E61846F8E64B45A9D2B9EB020877
:100F700064EB0C0E0138A3E74646EAE7204694E707
:100F80004046D1E7D0467BE7023B614432E730463A
:100F900009E76444023842E7704700BF2DE9F04199
:100FA00000250446C0E90055C0E90355C0E90555D0
:100FB000884617468560442229462C301E460AF092
:100FC000FBF9194BE362194B23634FF07C53A36386
:100FD000174BE363174B2364174B6364174BA364EE
:100FE000174BE3644FF07E532365164BE367164BB4
:100FF000C4F88030154BC4F88430154BC4F88830E1
:10100000069BA4F87050C4E90787A4F87250A4F8AE
:101010007450A4F87650A4F8785084F88D50666225
:10102000A3622046BDE8F0810000A0410000C84254
:1010300000007AC400007A440000FAC30000FA43BA
:101040000AD7A33B0000A042000016430000DC4288
:101050000000704410B50446406A02F083FD21464A
:10106000032203F029FF606A02F07EFD04F10C0107
:10107000022203F021FF606A02F07AFD04F11401FC
:101080000222BDE8104003F017BF38B50446C0691E
:1010900001F03CFF70B1B4F97050B5F57A7F09DA10
:1010A000FA352DB2206AA4F8705000F0D7FE03681C
:1010B0005D6338BDE06901F0FBFE0028F9D0B4F9AA
:1010C0007050002DF5DDFA3DEBE781EAE17010B5D7
:1010D000A0EBE1700029029C126880B228DB1BB9EA
:1010E000506394B9546310BD042B01D19063F8E7A9
:1010F000082B01D1D063F4E70C2B01D11064F0E789
:10110000102B0CBF9064D064EBE7042C4FF000036D
:1011100001D19363E7E7082C01D1D363E3E70C2CFB
:1011200001D11364DFE7102C0CBF9364D364DAE7BA
:101130001BB95363A4B95063D5E7042B4FF00001EA
:1011400001D19163F6E7082B01D1D163F2E70C2BB3
:1011500001D11164EEE7102B0CBF9164D164E9E773
:10116000042C01D19063BEE7082C01D1D063BAE70B
:101170000C2C01D11064B6E7102C0CBF9064D06425
:10118000B1E770B500260546A0F87260C06901F0AD
:1011900029FEBDEEC00A286A10EE103A1CB20A2CD5
:1011A000A5F8724008DD00F062FE002C0368B8BFAD
:1011B0006442A4B2DC6370BD00F059FE0368DE63D4
:1011C000F9E737B504460D4651B1006A00F048FE14
:1011D00008230246009329460C232046FFF775FF9B
:1011E00003B030BD37B50446C06901F0D9FDBDEE8E
:1011F000C00A10EE103A1DB2002DA4F876500BDD97
:10120000206A00F02FFE082302460093294604239B
:101210002046FFF75AFF00E0F2D103B030BD37B5EA
:101220000446C06901F022FEBDEEC00A10EE103A7D
:101230001DB2002DA4F878500BDD206A00F014FEDA
:10124000002302460093294604232046FFF73DFF72
:1012500000E0F2D103B030BD10B50446C06901F022
:10126000B1FE38B194F98D30632B03DC0A3384F876
:101270008D3010BDE06901F077FE0028F9D094F9B7
:101280008D30002BF5DD0A3BF1E7000013B5044675
:10129000C06901F0C5FE134A28B113780133DBB2EF
:1012A000012B17D813701378022B15D018D89BB1C7
:1012B000A06A02F096F8B5EE400AF1EE10FA0FD1EE
:1012C000A06A019001F05EFF019802B0BDE81040F5
:1012D00002F084B8002313709FED030AA06AF4E7BC
:1012E00002B010BD700300200000000000000000EC
:1012F00008B50068FFF72EF905A3D3E90023FFF72F
:10130000CDFAFFF751FC00B208BD00BFAFF300807B
:10131000E17A14AE4761104038B5012580F88C5051
:101320000446C06901F080FDDFED287AB4EEE70ADB
:10133000F1EE10FA1BD5002384F88C30D4F88430F9
:1013400063662046FFF7D4FF07EE900AF8EEE77ACF
:101350002046C4ED1A7AD4ED1B7AFDEEE77A17EE3B
:10136000903A19B2A4F87410FFF72BFF0BE0E06974
:1013700001F05AFDDFED167AB4EEE70AF1EE10FA4D
:101380001FDB84F88C50D4F8883063662046FFF762
:10139000AFFF07EE900AF8EEE77A04F12C00C4EDF7
:1013A0001A7A09F077FCD4ED1B7AFDEEE77A204635
:1013B00017EE903A19B2A4F87410BDE83840FFF760
:1013C00000BF94F88C30002BDDD1B7E70000C84295
:1013D0000000C8C210B50446FFF757FE2046FFF7CD
:1013E0009BFF2046FFF7FEFE2046FFF718FF204632
:1013F000FFF7C7FE2046FFF72DFE2046FFF72CFF24
:101400002046BDE81040FFF741BF000070B5094E0F
:10141000094D1E244FF48041304604F0EAFB32208F
:1014200003F098F9013C28460AF09EFD14F0FF04F1
:10143000F0D170BD0008004838DF0008454B30B5DA
:101440001A6E42F400621A661B6E9DB0102203F4FD
:10145000006300250446009300210DEB0200009B71
:1014600009F0AAFF1C22294608A8CDE901550395D9
:1014700009F0A2FF342229460FA809F09DFF364A41
:1014800065610823C4E903234FF48763C4E9063583
:10149000C4E908550C34204606F04AFE20B1FFF797
:1014A000B5FF2E480AF0DAFC4FF4805304A9204619
:1014B000049306F077FF08B1FFF7A8FF204606F077
:1014C00067FE20B1FFF7A2FF24480AF0C7FC002501
:1014D00001A92046CDE90155039507F045F908B16A
:1014E000FFF794FF6023082208A92046CDE90835BC
:1014F000CDE90A55CDE90C550E9506F0C7FE20B191
:10150000FFF784FF15480AF0A9FC00234FF40052AE
:10151000CDE914230FA94FF000722046CDE90F3317
:10152000CDE91133CDE91633CDE91823CDE91A33CE
:10153000139307F069F920B1FFF768FF07480AF035
:101540008DFC204602F082FE0821204607F00AF9B1
:101550001DB030BD00100240002C01405ADF0008D1
:1015600010B5102288B0044600210DEB020009F0EE
:1015700023FF00234FF08042C4E962234FF0FF3283
:10158000C4F89031C4F8A031C4E9652304F5C474EB
:101590002046CDE90133039306F0CAFD20B1FFF7E1
:1015A00035FF0F480AF05AFC4FF4805304A9204637
:1015B000049306F0F7FE20B1FFF728FF08480AF071
:1015C0004DFC002301A920460193039307F0CCF8BA
:1015D00020B1FFF71BFF02480AF040FC08B010BD25
:1015E00071DF00082F4B30B59A6D42F002029A6508
:1015F0009B6D8DB0002503F00203044601931C226D
:10160000294605A8019B0495CDE9025509F0D4FEB1
:10161000254BC4F84451C4E94F354FF47A73C4F8EC
:101620005451C4E9523504F59E74204606F0B0FDCD
:1016300020B1FFF7EBFE1D480AF010FC02A920467E
:101640000295049507F090F820B1FFF7DFFE1748E8
:101650000AF004FC0022602305A92046CDE90532EA
:101660000792099206F012FE20B1FFF7CFFE0F4855
:101670000AF0F4FB042205A9204606F007FE20B17B
:10168000FFF7C4FE09480AF0E9FB204602F0DEFD40
:101690000021204606F0F4FF0421204606F0F0FF6A
:1016A0000DB030BD001002400004004088DF00088B
:1016B0003D4B30B59A6D42F004029A659B6D91B036
:1016C00003F004030446002501931022002105A81D
:1016D000019B09F071FE29461C2209A8CDE902559B
:1016E000049509F069FE314925660223C4E9161301
:1016F0004FF47A732567C4E919355834204606F04B
:1017000017FD20B1FFF782FE29480AF0A7FB4FF42E
:10171000805305A92046059306F044FE20B1FFF74B
:1017200075FE23480AF09AFB204606F031FD20B1F1
:10173000FFF76CFE1E480AF091FB002302A9204629
:101740000293049307F010F820B1FFF75FFE1848EA
:101750000AF084FB00236022CDE9092309A90422B1
:1017600020460B930D9306F091FD20B1FFF74EFE3E
:101770000F480AF073FB082209A9204606F086FDEF
:1017800020B1FFF743FE0A480AF068FB204602F04A
:101790005DFD0821204606F073FF0421204606F077
:1017A0006FFF11B030BD00BF0010024000080040C4
:1017B0009FDF0008464B30B51A6E42F400521A669D
:1017C0001B6E9DB0102203F40053002504460093C5
:1017D00000210DEB0200009B09F0EEFD1C222946C2
:1017E00008A8CDE90155039509F0E6FD3422294604
:1017F0000FA809F0E1FD374AC4F8F8500223C4E904
:101800003C234FF47A73C4E93F35C4E94155F034C1
:10181000204606F08DFC08B1FFF7F8FD4FF4805329
:1018200004A92046049306F0BDFD08B1FFF7EEFDC4
:10183000204606F0ADFC08B1FFF7E8FD002501A940
:101840002046CDE90155039506F08EFF08B1FFF75C
:10185000DDFD6023082208A92046CDE90835CDE941
:101860000A55CDE90C550E9506F010FD08B1FFF7AD
:10187000CDFD0C2208A9204606F008FD08B1FFF7AF
:10188000C5FD00234FF40052CDE914230FA94FF0FA
:1018900000722046CDE90F33CDE91133CDE916337F
:1018A000CDE91823CDE91A33139306F0ADFF08B143
:1018B000FFF7ACFD204602F0C9FC0821204606F0E7
:1018C000DFFE0C21204606F04DFF1DB030BD00BFED
:1018D0000010024000340140364B70B51A6E42F4DD
:1018E00000321A661B6E96B003F40033054601936E
:1018F0001C22002102A8019B09F05EFD3422002178
:1019000009A809F059FD2C4A8023C5E9292305F1CE
:10191000A40600234FF47A72C5E92B32C5E92D33B2
:10192000C5F8BC30304606F003FC20B1FFF76EFD71
:1019300022480AF093FA304606F02AFC20B1FFF75D
:1019400065FD1E480AF08AFA00246023224602A997
:101950003046CDE90234CDE90444CDE9064408948B
:1019600006F094FC20B1FFF751FD14480AF076FA16
:101970004FF4005309A93046CDE90944CDE90B44A1
:10198000CDE90E340D94159406F03EFF20B1FFF71B
:101990003DFD0A480AF062FA304602F057FC002189
:1019A000304606F06DFED5F8A43000225A6316B01A
:1019B00070BD00BF0010024000440140B6DF0008C7
:1019C00000B59BB01022002103A809F0F5FC1A4ACB
:1019D0000023CDE9072307A84FF6FF72CDE90033B6
:1019E000CDE90A23CDE90C330293099306F0A0FB5D
:1019F00020B1FFF70BFD11480AF030FA4FF4805385
:101A000003A907A8039306F0CDFC20B1FFF7FEFC65
:101A10000A480AF023FA0023694607A8CDE90033F3
:101A2000029306F0A1FE20B1FFF7F0FC03480AF094
:101A300015FA1BB05DF804FB00500140B6DF00084A
:101A400010B51D4A044600684FF46143C0E9002305
:101A500000230C22C0E90233C0E90523C0E90733A3
:101A6000C0E90933036107F035FD20B1FFF7CEFC73
:101A700012480AF0F3F92068002107F019FE20B19E
:101A8000FFF7C4FC0D480AF0E9F92068002107F0CF
:101A900033FE20B1FFF7BAFC08480AF0DFF92068EE
:101AA00007F0EBFD30B1FFF7B1FCBDE81040034893
:101AB0000AF0D4B910BD00BF00380140CEDF0008E5
:101AC00010B5204A204B044640684FF48051C0E9CD
:101AD00000230023C0E90213C0E90633C0E908333C
:101AE00002234FF4806C0C2283624FF48033C0E9F0
:101AF00004C2036307F0EEFC20B1FFF787FC134834
:101B00000AF0ACF96068002107F0D2FD20B1FFF7C0
:101B10007DFC0E480AF0A2F96068002107F0ECFD98
:101B200020B1FFF773FC09480AF098F9606807F0E4
:101B3000A4FD30B1FFF76AFCBDE8104003480AF08D
:101B40008DB910BD00440040A0860100E1DF00080F
:101B500013B51B4A1B4B04468068C0E900230023D1
:101B60000122C0E90232C0E90433C0E9063303624E
:101B700004F0D9F920B1FFF749FC13480AF06EF9D7
:101B8000A068002104F099FB20B1FFF73FFC0E484C
:101B90000AF064F9A068002104F0B5FB20B1FFF75A
:101BA00035FC09480AF05AF9084B9A6D42F4800254
:101BB0009A659B6D03F480030193019B02B010BDF5
:101BC00000580040DFC4A020F4DF000800100240ED
:101BD0001FB5234B9A6C42F004029A649A6C02F08F
:101BE00004020192019A9A6C42F001029A649A6C82
:101BF00002F001020292029A9A6C42F002029A6486
:101C00009B6C002203F00203114603930B20039BFD
:101C100003F022FC0B2003F051FC002211460C20A3
:101C200003F01AFC0C2003F049FC002211460D20A1
:101C300003F012FC0D2003F041FC002211460E209F
:101C400003F00AFC0E2003F039FC00221146382074
:101C500003F002FC382005B05DF804EB03F02EBC65
:101C60000010024010B50446FFF7B2FF2046FFF710
:101C7000E5FB2046FFF774FC2046FFF7B3FC204647
:101C8000FFF716FD2046FFF795FD2046FFF724FEDF
:101C90002046FFF795FE2046FFF7D2FE2046FFF7CD
:101CA0000FFF2046FFF754FFBDE8104009F076B85B
:101CB0002DE9F04114228AB00DEB0200002109F059
:101CC0007BFB3A4BDFF8F080DA6C394F394E42F04B
:101CD0000402DA64DA6C02F004020092009ADA6C10
:101CE00042F02002DA64DA6C02F020020192019ADA
:101CF000DA6C42F04002DA64DA6C02F040020292DE
:101D0000029ADA6C42F00102DA64DA6C02F0010243
:101D10000392039ADA6C42F00202DA64DB6C03F09D
:101D200002030493404600224FF44041049B03F019
:101D30005BFF38460022022103F056FF30460022A6
:101D40004FF4806103F050FF002210214FF09040CB
:101D500003F04AFF012500244FF4404305A9404603
:101D6000CDE90535CDE9074403F072FE022305A94C
:101D70003846CDE90535CDE9074403F069FE4FF457
:101D8000806305A93046CDE90535CDE9074403F068
:101D90005FFE102305A94FF09040CDE90535CDE950
:101DA000074403F055FE0AB0BDE8F0810010024080
:101DB00000140048001800480008004800B595B01D
:101DC0003822002106A809F0F7FA1422002101A800
:101DD00009F0F2FA4FF4007005F0A4FA22230693FA
:101DE0004FF4807140230122CDE909130223CDE98C
:101DF0000C23CDE90E3206A81022CDE91023CDE93F
:101E0000123305F0E9FA20B1FFF700FB0B480AF0A6
:101E100025F80F230321CDE9013101A80023CDE9E5
:101E20000333059305F01EFD20B1FFF7EFFA0348D9
:101E30000AF014F815B05DF804FB00BF06E00008D6
:101E400010B5054B044680E80E00FFF7B7FF2046AB
:101E5000FFF72EFF204610BDB80A0020A4307047BF
:101E6000F03070475830704700F59E7070470C3066
:101E700070470A88504080EA0010C0B2030983EA24
:101E8000122343EA002383EAC0000880704713B599
:101E900004460846237862780DF1060143EA0223DE
:101EA000ADF80630FFF7E5FFBDF80630238002B03D
:101EB00010BD00002DE9F04F0568D3005B190360E9
:101EC00028BF4368DFB024BF0133436000F128031B
:101ED0000C9300F14003044600911646C5F3C50576
:101EE0000D930DF17809002E00F0BE80C5F140077A
:101EF000B7420C9B009928BF374658193A4609F05B
:101F00004DFA009B3D443B44402D0093A6EB070651
:101F1000E9D123460EAA93F82B10117093F82A10DA
:101F2000517093F82910917093F82810D1700D9981
:101F30000433994202F10402EDD1A3680193E368EE
:101F400002932369039363690493A3690593E36987
:101F50000693236A07930EAF636A08930FCF4D462B
:101F60000FC50FCF0FC50FCF0FC597E80F0085E83E
:101F70000F004A461020936B17464FEAF34181EA5F
:101F8000734181EA93217B6A3F6852F8045F3B44C6
:101F900019444FEAB54383EAF51383EAD5030130C8
:101FA00019444028D163E6D1314B0B93DDE902722D
:101FB000DDE906EC049B019DDDF820B005980A934D
:101FC0004FF000080B9B53F8041B0B934FEAF023D0
:101FD00083EAB01383EA706A59F8283019440AEB8F
:101FE00001032CEA000A00EA0E018AEA0101194401
:101FF00087EA020359442B404FEA753A07EA020B7D
:1020000083EA0B0B8AEAB50A0A9B0A928AEAB55A56
:1020100008F10108DA440B44B8F1400F0993514428
:10202000E3461AD1019B0B44A360029B2B44E3605F
:10203000039B3B442361049B13446361099A059B02
:102040001344A361069B0344E361079B734423622B
:10205000089B63446362002545E73A46F4462F46F1
:1020600086460D460998ADE75FB0BDE8F08F00BF2A
:1020700070E00008F0B50668F70893B0C7F177077D
:1020800004460D4607F03F078023472200210DF14B
:1020900001008DF8003009F08FF907F148036B4417
:1020A000320A03F8412C320C03F8422C626803F820
:1020B000406C110A03F8442C03F8451C360E110C31
:1020C000120E03F8436C03F8461C03F8472C6946CC
:1020D00007F109022046FFF7EDFEE37A2B70A37AA1
:1020E0006B70637AAB70237AEB70E37B2B71A37B0D
:1020F0006B7113B0F0BDF8B58B78CF78FE2B0D4621
:10210000044601F10C0128D03E46012EF7B203D956
:10211000721E885C002844D0237067702B79A370EE
:102120006B79E370AB792371EB7963712B7AA371CF
:102130006B7AE371AB7A2372EB7A6372324604F105
:102140000A0009F02BF906F10A002E7916F00106B3
:10215000204418BF0D26092412E003704770AB79A4
:102160008370EB79C3702B7A03716B7A4371EA78D1
:10217000063009F013F9E8780630204400260524DB
:102180002B8803702B881B0A43702EB1324605F54D
:102190008B71023009F002F93C4403343444A0B29C
:1021A000F8BD1646B1E703460846DA780021092A49
:1021B00001604160017228BF092203F10C0109F09E
:1021C000EDB800002DE9F04FDFF81CB29BF80C6071
:1021D000A5B016F0020604469DF8B8001BD1DBF846
:1021E0001030002B57D01D7815F0010556D00D2565
:1021F0000127FD23A37000F10C0354FA83F313F8B5
:1022000001CDBCF1000F03D10138C0B20128F6D1D5
:102210004FF00A0806E0FE200025A0704FF00608E7
:1022200018462F46E070E1712272002F38D12771D5
:10223000002363719BF80630A37101338BF80630DD
:10224000A3788DF81C30E378A07A8DF81D30637A7E
:1022500094F806C043EA0023E07A43EA0040DBB288
:102260000EB38DF81EC08DF81F108DF820208DF84C
:1022700021301FFA88FA4FF6FF73ADF82830564622
:102280000DF11D09013EB6B216B319F8010B0AA9EA
:10229000FFF7EFFDF6E735463746AAE72F46A8E7F2
:1022A00001232371C4E726798DF81E608DF8233051
:1022B00066798DF81F60031200148DF820C08DF828
:1022C00021108DF822208DF824308DF82500D0E7DC
:1022D000BDF82830E678ADF80E3004F10C094B4615
:1022E0000DF10E0146B113F8010B0193013EFFF70A
:1022F000C0FDB6B2019BF3E79DF8BC00FFF7B9FD46
:10230000E278BDF80E3009F80230E2784A44190A42
:1023100051702380002F52D0DBF8101000294ED0CE
:102320000B78DF074BD54B7884F81631D1E90232B0
:10233000CDE90432C4F81731BDF81430A4F81B31CC
:10234000D1E90232013342F10002E7781F48C1E9C6
:1023500002321F4A1F4BCDE90C231F4BCDE90A6601
:10236000CDE90E031D4E1E4BCDE910631D4B12939C
:1023700003F17453A3F52303A3F6924320221031F3
:102380000AA81393FFF796FD424607A90AA8FFF78C
:1023900091FD3A4649460AA8FFF78CFD022209EB57
:1023A00007010AA8FFF786FD04F58B710AA807222A
:1023B000FFF780FD04F21D110AA8FFF75BFEE0782D
:1023C00002305044284425B0BDE8F08F72F36E3CD3
:1023D00067E6096A85AE67BB3AF54FA57F520E5195
:1023E0008C68059BABD9831F04080020F8B51E4BF1
:1023F00001601B88A0F8A03200251C4BC0F8A83251
:1024000000F5347704460E468260C5600574458247
:10241000C0F8A452C0F8AC5229464FF48C7238462A
:1024200008F0CAFF2946C4E9FB554FF48C7204F545
:102430007D7008F0C1FF04F5A26300200021C3E90C
:1024400000010B4BC4F81855A4F81C5584F81E5510
:10245000C4F820554FF48C72394630461C6007F0A2
:102460006FF92046F8BD00BFF0DE00080A008003C7
:10247000740300202DE9F04FD0E9A91387B0CDE90E
:1024800003134FF003088DF8148003AB044690F853
:10249000A06290F8A12284F84B8100F2371903CB97
:1024A000002509274FF0320BC4F84301C4F8471147
:1024B00084F84051314684F8415184F842513B46FA
:1024C000CDE9007B4846FFF77DFE1A4B0395049348
:1024D0008DF8148003AE608203CE94F8A0C294F805
:1024E000A122C4F84301C4F8471184F84051614661
:1024F00084F8415184F842513B4604F57D75CDE99D
:10250000007B84F84B814846FFF75CFE494628462D
:10251000FFF7F1FD628A2068294606F0CDFA28B15E
:10252000054807B0BDE8F04F09F01EBD07B0BDE893
:10253000F08F00BF0A00800326E0000884B030B5A9
:102540008DB0044611A880E80E00C3F31723012BB9
:1025500018D10F4809F008FD9DF847502B2D28BFD2
:102560002B252B22002101A808F026FF2A4614A9BA
:1025700001A808F013FF0198FDF7ECFF04F5A26431
:10258000C4E900010DB0BDE8304004B0704700BFA1
:102590004DE000082DE9F04FB04BB14C1F68ADF590
:1025A000197D4FF00008D7F8F033AE4D5A1C3B446C
:1025B000C7F8F02393F8D0624FF000032370E3785C
:1025C0000F2B22D8DFE813F0120012006100740014
:1025D00083008900900097009E00B000C500D900DC
:1025E000E9002F012F017201E370DCE7FD2E237B50
:1025F00041D10222E27085F80380AE7023F001031E
:1026000023734FF0FF332B706B702278012A06D1B1
:102610002389A979617103B9638101332381E37847
:1026200087F88B32237987F88C326379E978F975EA
:10263000013387F88D322389A7F89032A378A7F861
:102640009232022A237B87F8943284F8028040F089
:102650000682B5F81431BB820123FD2EA37084F8E5
:102660000080C1D10223E3704FF0FF3385F803806F
:102670002B706B7097E7FE2EC7D10222E27085F8AF
:102680000380AE7043F00103BAE7764884F8048013
:102690003146EE70FFF7FBFB237BD80705D585F8A5
:1026A000048085F80580052300E00323E370ACE790
:1026B00016F0FE0F2E7104D0A3780133A37001230E
:1026C000F4E768483146FFF7E2FB0423EEE765488C
:1026D0006E713146FFF7DBFBE5E76248AE713146CC
:1026E000FFF7D5FB0623E1E75E48EE713146FFF7C1
:1026F000CEFB0723DAE75B482E723146FFF7C7FBB4
:102700000823D3E7002331465648AB72EB726E7252
:10271000FFF7BDFB237BD90704D5EB78002B3AD01C
:102720000B23C3E70923C1E7AA7A6B7A4D4843EA32
:102730000223EA7A43EA024343EA06226B723146F5
:10274000C2F30723120CAB72EA72FFF7A0FB0A2355
:10275000ACE7AA7A6B7A434843EA0223EA7A43EA6F
:10276000024343EA06426B72C3F30723AB7231465E
:10277000130CEB72FFF78BFBCFE7237939485A1C18
:102780002B4422711E733146FFF781FB2279EB78CF
:102790009A427FF43AAF0C2388E7AB7A697ADFF884
:1027A000CCC041EA0321EB7ADA2041EA03414FF041
:1027B0000C0E00231A18013252080EFB02F95CF8C5
:1027C000099049452CD2501E9842F3D80C2253430D
:1027D0000CEB03095CF803302248994216BF4FF016
:1027E000000999F804104946FFF751FB2B8885F83A
:1027F0001461DBB29E4214BF0E230D23E370B9F1C6
:10280000000F3FF402AF237999F806209A427FF631
:10281000FCAE1548D21A0021184408F0CDFDF4E6AC
:102820001346D3D9D0E70E2B16D02B88B6EB132F37
:1028300014BF022301232A792370D20785F815617A
:1028400016D50F22E270022B4FF00D0262733FF497
:10285000DCAE84F80080D8E60223ECE774030020A5
:1028600004080020780300208403002070E10008A1
:1028700023692BB11A6B6AB92378022B40F0EC80E4
:1028800001239849E37040F2231207F1140008F085
:1028900085FDBAE6A97A6B7A43EA0123E97A2046F4
:1028A00043EA014190470028EAD1E5E7637BEA1A51
:1028B000013BDBB282F823616373002B7FF4A5AE8A
:1028C000D4F810A0BAF1000F00F09F80CDE94F338B
:1028D000854A864B86498748D4F81490CDE9512320
:1028E000854BCDE95313854BCDE95503844B579365
:1028F00003F17453A3F52303A3F6924320220AF1B4
:1029000010014FA85893FFF7D5FA7E490A224FA825
:10291000FFF7D0FAEA787C494FA8FFF7CBFA7B495A
:1029200002224FA8FFF7C6FA072279494FA8FFF7FE
:10293000C1FA48A94FA8FFF79DFB7649062248A88F
:1029400008F01CFD0346002878D1DFF8D0C195F8C7
:1029500016B1BCF8042000200021CDE94A01DCF8C2
:1029600000004A90ADF82C21B9F1000F66D0EA7949
:10297000B9F800E0287A479246934A46BDF8181104
:102980008E450ED9D178479B994205D11179814264
:1029900002D1917859453AD0469B0133469309328A
:1029A000ECE734D1BEF10F0F48D8DDE94A215A488F
:1029B0001018DAE9023241F10001984271EB02038A
:1029C0003CD3469B03EBC3024A44479BD370297A0E
:1029D00011710EF1010E82F802B0A9F800E0469BD9
:1029E000DCF8001003EBC303053309EB030249F8DD
:1029F0000310BCF804309380DAE90212DDE94A03DF
:102A000081429A4101D2CAE90203012325E0469B93
:102A100003EBC302053200200021CDE94C0109EB94
:102A2000020159F802008A88ADF83421DDE94A3103
:102A30004D9A4C90984272EB0103D0D323691A6BE4
:102A400052B1A97A6B7A43EA0123E97A204643EA34
:102A5000014190470028D8D10323237010E7032AAF
:102A60003FF4FAAD002A3FF49EADBB7D87F81835E0
:102A70003B7F87F81E35FB693A8BA7F81A25C3F30D
:102A800017237A8BA7F81C25C7F8203587F8191566
:102A900040F2171207F1200107F11404684608F00C
:102AA0007DFC94E80E003846FFF748FD40F2231203
:102AB00021464FA808F072FC519B1B0A04D107F273
:102AC00024514FA8FFF76FFB38684FF48C7207F55D
:102AD000347106F083FD0023C7F8F0330DF5197D3E
:102AE000BDE8F08F7803002067E6096A85AE67BB12
:102AF00072F36E3C7F520E513AF54FA58C68059BE0
:102B0000ABD9831F7A030020840300208C040020AB
:102B10008E04002095040020808D5B008F0400202F
:102B20002DE9F0472DED028B04468AB0806800F055
:102B300029FB0027002304F243150DF1080C94F83B
:102B4000A09294F8A1220693B0EE408A04F23718BE
:102B50008DED020A0397049705972B460DF1180A8D
:102B60006646E646BEE80300D64518605960F4465E
:102B700003F10803F5D1DEF80000186000234A21B4
:102B800084F8413184F842311423CDE9003384F8CC
:102B9000401140464946FFF715FB00200021CDE9D2
:102BA000020194F8A0C294F8A122089709978DED2C
:102BB000048A8DED058A8DED068A8DED078A2B46F8
:102BC0000AAF354603CDBD42186059602E4603F169
:102BD0000803F6D100236FF0720184F8401184F8E5
:102BE000413184F842312F212023CDE9003104F511
:102BF0007D7561464046FFF7E5FA41462846FFF7F6
:102C00007AFA64230246A4F80C052946206806F0E7
:102C1000CFFB38B106480AB0BDEC028BBDE8F047E7
:102C200009F0A2B90AB0BDEC028BBDE8F08700BF85
:102C300026E0000810B5044601F086FD6423B0FBD1
:102C4000F3F202FB130020B92046BDE81040FFF765
:102C500011BC01F079FDCB23B0FBF3F202FB1300B2
:102C600020B92046BDE81040FFF75ABF10BD38B567
:102C7000192204460D460430002108F09DFB202255
:102C8000002104F11E0008F097FB2560204638BDA6
:102C9000B0F805308179C3F30A03C383C3795A01BD
:102CA00042EAD102C2F30A02017A02849B09427A03
:102CB00043EA810343EA8223817AC3F30A0343840C
:102CC000CB0143EA5203C3F30A038384C37A1A0194
:102CD00042EA1112C2F30A02C284027B417BDB0981
:102CE00043EA420343EA4123C3F30A030385837B98
:102CF0009A0142EA9102C2F30A024285C27B417CF8
:102D00005B0943EAC2038385038AC3F30A03C385CD
:102D1000837C5A0142EAD102C2F30A02C17C0286D4
:102D20009B09027D43EA810343EA8223417DC3F389
:102D30000A034386CB0143EA5203C3F30A038386A3
:102D4000837D1A0142EA1112C2F30A02017EC28691
:102D5000C27DDB0943EA42030387437E9A0142EACC
:102D60009102C2F30A024287827E5B0943EAC203F0
:102D70008387C37E13F001030EBF1A4640F2FF7330
:102D80000122C3871046704710B5011D0446192261
:102D9000006806F0D5FC2046BDE81040FFF778BF7C
:102DA000B0F92230B3F5806F0DDA4FF47A72A3F5E3
:102DB00080635343A2F27C6293FBF2F307EE903AF6
:102DC000B8EEE70A704708D04FF61842A3F58063C3
:102DD00013FB02F34FF42572EEE79FED010A7047F3
:102DE00000000000B0F9203007EE903AB3F5806F94
:102DF000F8EEE77A0CDA9FED087A77EEC77A9FED66
:102E0000077A67EE877A9FED067A87EE870A704722
:102E1000F1D19FED040A70470000804400007A441D
:102E2000000025C400000000B0F91E3007EE903A03
:102E3000B3F5806FF8EEE77A0CDA9FED087A77EE5B
:102E4000C77A9FED077A67EE877A9FED067A87EE5D
:102E5000870A7047F1D19FED040A70470000804453
:102E600000007A440000254400000000B0F926303C
:102E700007EE903AB3F5806FF8EEE77A0CDA9FED43
:102E8000087A77EEC77A9FED077A67EE877A9FED2B
:102E9000067A87EE870A7047F1D19FED040A7047E2
:102EA0000000804400007A44000025C400000000B7
:102EB000144A018D1378012B0ED0022B4FF0000025
:102EC00019D0EBB9B1F5FA7F01D800207047012184
:102ED00011700D4A1370F8E7B1F5FA7F02D800209F
:102EE0001070704708490B780133DBB2272B0B7049
:102EF000EBD90223EEE7B1F5FA7FE6D81070012096
:102F0000704700BF6608002067080020144A418D02
:102F10001378012B0ED0022B4FF0000019D0EBB923
:102F2000B1F57A7F01D800207047012111700D4A58
:102F30001370F8E7B1F57A7F02D80020107070475F
:102F400008490B780133DBB2272B0B70EBD9022336
:102F5000EEE7B1F57A7FE6D810700120704700BF28
:102F60006808002069080020144A818D1378012B1D
:102F70000ED0022B4FF0000019D0EBB9B1F57A7FDB
:102F800001D800207047012111700D4A1370F8E735
:102F9000B1F57A7F02D800201070704708490B788D
:102FA0000133DBB2272B0B70EBD90223EEE7B1F52F
:102FB0007A7FE6D810700120704700BF6A080020B1
:102FC0006B080020144AC18D1378012B0ED0022B00
:102FD0004FF0000019D0EBB9B1F57A7F01D800208D
:102FE0007047012111700D4A1370F8E7B1F57A7F2F
:102FF00002D800201070704708490B780133DBB20B
:10300000272B0B70EBD90223EEE7B1F57A7FE6D8D8
:1030100010700120704700BF6C0800206D08002070
:10302000144A018E1378012B0ED0022B4FF00000B2
:1030300019D0EBB9B1F57A7F01D800207047012192
:1030400011700D4A1370F8E7B1F57A7F02D80020AD
:103050001070704708490B780133DBB2272B0B70D7
:10306000EBD90223EEE7B1F57A7FE6D810700120A4
:10307000704700BF640800206508002038B50023B1
:1030800004460D468360C36003614361142200213E
:10309000183008F091F90023E3622386256020466A
:1030A00038BD1FB501236422CDE9013200F13102A0
:1030B0000092C0210C22006803F03CF8002005B00B
:1030C0005DF804FBD0ED027A9FED125AD0ED065A5E
:1030D000C0ED067A77EE857A90ED076AD0ED086A42
:1030E00090ED097A80ED086A77EEA57A80ED0A7A8C
:1030F00077EE867AC0ED096A76EEA77AC0ED075AB8
:1031000037EE277AF1EE047A87EE270A80ED050A7A
:10311000704700BF000000001FB501236422CDE905
:10312000013200F12D02009204462622C0210068DF
:1031300003F000F894F82D0004B010BD1FB5012372
:103140006422CDE9013200F12C02009204460022F3
:10315000C021006802F0EEFF94F82C0004B010BD0E
:103160001FB501236422CDE9013200F12F02009244
:1031700004461322C021006802F0DCFF94F82F00FF
:1031800004B010BD90ED050A70477FB501238DF89E
:1031900017206422CDE901320DF117020092006878
:1031A0000A46C02102F010FF002007B05DF804FBC2
:1031B0002DE9F041444D86B004462046FFF771FFEB
:1031C000284608F0D1FE94F83130C42BF5D1042301
:1031D0008DF8173001260DF1170364270093CDE910
:1031E0000167206833462622C02102F0EDFE00254B
:1031F0000DF11608CDE901672068CDF800800123A4
:103200002622C021013502F095FF0028F2D19DF859
:1032100016102E4808F022FE29462D482D4D08F0A4
:103220001DFE02238DF817309DF817202621204619
:10323000FFF7ABFF38B1284608F096FE9DF8163030
:1032400084F82D30F0E70723234D8DF817309DF8D3
:10325000172013212046FFF798FF18B1284608F0E1
:1032600083FEF4E73A231C4D8DF817309DF81720A4
:1032700026212046FFF789FF18B1284608F074FE82
:10328000F4E7164808F070FE154808F06DFE204679
:10329000FFF742FF0146134808F0E0FD2046FFF724
:1032A0004DFF0146104808F0D9FD2046FFF758FFB2
:1032B00001460E4808F0D2FD94F831100C4808F091
:1032C000CDFD06B0BDE8F081B4EB0008D3EB0008FB
:1032D000EFEB000808EC00082DEC000858DF0008B0
:1032E0004CEC00088FEC0008B5EC0008C7EC0008B7
:1032F000DCEC000810B50446FFF70EFF030608D407
:1033000060F07F02D2B220462621BDE81040FFF7D0
:103310003CBF10BD10B50446FFF7FEFE820705D581
:1033200000F0FD0226212046FFF72FFF2046FFF781
:10333000F3FE830708D440F00202D2B220462621D1
:10334000BDE81040FFF721BF10BD000010B50446D6
:1033500086B0FFF7CFFF2046FFF7DCFF0123642292
:10336000CDE90132221D0092C0210722206802F01F
:10337000E1FE2046FFF7E2FE03224FF40071CDE9A3
:103380000121012305AA009220681A46C02102F0FB
:10339000D1FE9DF815309DF814001B0443EA00632C
:1033A0009DF8160043EA0020FDF7E4F80A4B0022DE
:1033B000FDF74AF9FDF720FC94ED030A04EE900AAC
:1033C00034EEC00A204684ED020AFFF77BFEB0EE21
:1033D000640A06B010BD00BF0000F03E80ED030A95
:1033E000704790ED030A704770B5094E094D1E24D1
:1033F0004FF48041304602F0FCFBC82001F0AAF9EE
:10340000013C284608F0B0FD14F0FF04F0D170BD77
:1034100000080048F3EC000830B500248DB00546E4
:103420002022214604A8CDE90144039407F0C4FFFB
:10343000A86B4FF440334FF0A04C0822C0E900C302
:103440000123C0E90532032202624FF01C0E4FF443
:103450008072C0E90244C0E90B44C0E911E2C0E94E
:1034600013430461848380F8244080F83840C463A7
:1034700080F8403001F098F920B1FFF7B5FF2748F8
:1034800008F0ECFCA86B019401A901F021FE20B129
:10349000FFF7AAFF224808F0E1FC22480623CDE905
:1034A00004037F220423CDE906320893A86B00238E
:1034B00004A9099301F0D8FA20B1FFF795FF1A4843
:1034C00008F0CCFC1949A86B1223CDE904137F2224
:1034D0000423CDE90632089304A90023099301F0DF
:1034E000C3FA20B1FFF780FF114808F0B7FC114A7A
:1034F000A86B1823CDE9042304237F22CDE90632EB
:10350000089304A90023099301F0AEFA20B1FFF754
:103510006BFF074808F0A2FC0DB030BD11ED0008AC
:1035200022ED00080008302E4FED00080040C03AA0
:1035300072ED00080010603210B5044688B02022F9
:103540000021684607F038FFE06BDFF8B8C00122C1
:1035500008214FF44033C0E905210221C0E900C32E
:10356000016200234FF0180EE021C0E90233C0E9E8
:103570000B33C0E911E1C0E913320361838380F8A2
:10358000243080F83830C36380F8402001F00CF913
:1035900020B1FFF729FF164808F0E6FC1549E06B5B
:1035A0000623CDE900137F220023CDE902326946CC
:1035B0000422CDE9042301F057FA20B1FFF714FFEC
:1035C0000D4808F0D1FC0D4AE06B0C23CDE9002337
:1035D000694604237F22CDE90232049301F044FAC4
:1035E00020B1FFF701FF064808F0BEFC08B010BD8F
:1035F0009DED0008000029C3B6ED000800008CCB4B
:10360000DBED00080001005010B5044688B0202210
:103610000021684607F0D0FE206CDFF8B4C001221C
:1036200008214FF44033C0E905210221C0E900C35D
:10363000016200234FF0180EE021C0E90233C0E917
:103640000B33C0E911E1C0E913320361838380F8D1
:10365000243080F83830C36380F8402001F0A4F8AB
:1036600020B1FFF7C1FE164808F0F8FB1549206CA1
:103670000623CDE900137F220023CDE902326946FB
:103680000422CDE9042301F0EFF920B1FFF7ACFEED
:103690000D4808F0E3FB0D4A206C0C23CDE9002314
:1036A000694604237F22CDE90232049301F0DCF95C
:1036B00020B1FFF799FE044808F0D0FB08B010BD18
:1036C00000EE00082000F09417EE00080800908C2F
:1036D0000006005000680B4A08B50023C0E900232B
:1036E0005022C0E90333C0E90533826001F096FD42
:1036F00030B1FFF779FEBDE80840034808F0AEBBE3
:1037000008BD00BF0002014038EE000840680B4AC7
:1037100008B50023C0E900235022C0E90333C0E903
:103720000533826001F07AFD30B1FFF75DFEBDE840
:103730000840034808F092BB08BD00BF04020140E6
:1037400050EE000880680A4A08B50023C0E900234B
:103750004022C0E904338260836101F05FFD30B133
:10376000FFF742FEBDE80840024808F077BB08BDFD
:103770000C02014068EE0008C0680B4A08B500233F
:10378000C0E900234022C0E90333C0E90533826069
:1037900001F044FD30B1FFF727FEBDE808400348C3
:1037A00008F05CBB08BD00BF1002014080EE0008BD
:1037B0000069094A08B50023C0E900235022C0E986
:1037C0000333C0E90533826001F028FD18B1BDE87C
:1037D0000840FFF709BE08BD1802014010B50446B5
:1037E0008CB030220021684607F0E6FD6069164B78
:1037F000036001F085FE20B1FFF7F6FD134808F0E5
:103800002DFB00220223606900936946CDE9022264
:10381000CDE90423CDE90632ADF8042001F084FEA1
:1038200020B1FFF7E1FD094808F018FB606910229C
:10383000694601F079FE20B1FFF7D6FD034808F094
:103840000DFB0CB010BD00BF0008005098EE000842
:1038500010B504468CB030220021684607F0ACFD5C
:10386000A069104B036001F04BFE20B1FFF7BCFDD7
:103870000D4808F0F3FA002202230C480093694631
:10388000CDE90222CDE90423CDE90632ADF80420CA
:1038900001F04AFE20B1FFF7A7FD034808F0DEFA69
:1038A0000CB010BD000C0050AFEE00087C0A0020E8
:1038B00010B504468CB030220021684607F07CFD2C
:1038C000E069114B036001F01BFE20B1FFF78CFD96
:1038D0000E4808F0C3FA02220023CDE90432CDE9F4
:1038E00006230092E069ADF8043010226946CDE964
:1038F000023301F019FE20B1FFF776FD034808F00E
:10390000ADFA0CB010BD00BF00100050C6EE0008AC
:1039100010B504468CB030220021684607F04CFDFB
:10392000206A104B036001F0EBFD20B1FFF75CFD56
:103930000D4808F093FA00220223206A009369469A
:10394000CDE90222CDE90423CDE90632ADF8042009
:1039500001F0EAFD20B1FFF747FD034808F07EFAC9
:103960000CB010BD00140050DDEE0008406A0C4A97
:1039700008B50023C0E90023402282600122C0E98B
:103980000933036102758361C36202F0E1FC30B167
:10399000FFF72AFDBDE80840024808F05FBA08BDFD
:1039A00000030140F4EE0008806A0D4A08B50023C8
:1039B000C0E9002340228260012202754FF4404298
:1039C000C0E90A2303618361436202F0C1FC30B1A4
:1039D000FFF70AFDBDE80840024808F03FBA08BDFD
:1039E000040301400AEF0008C06A0C4A08B500232E
:1039F000C0E90023402282600122C0E9093303614B
:103A000002758361C36202F0A3FC30B1FFF7ECFCE6
:103A1000BDE80840024808F021BA08BD080301408B
:103A200020EF0008006B0D4A08B50023C0E9002311
:103A300040228260012202754FF44042C0E90A230D
:103A400003618361436202F083FC30B1FFF7CCFC79
:103A5000BDE80840024808F001BA08BD0C03014067
:103A600036EF0008406B0D4A08B50023C0E900237B
:103A700040228260012202754FF44042C0E90A23CD
:103A800003618361436202F063FC30B1FFF7ACFC79
:103A9000BDE80840024808F0E1B908BD1003014044
:103AA0004CEF000810B50446FFF714FE2046FFF760
:103AB0002DFE2046FFF746FE2046FFF75DFE20461E
:103AC000FFF776FE2046FFF7A7FC2046FFF786FEAD
:103AD0002046FFF7BDFE2046FFF7EAFE2046FFF72F
:103AE00017FF2046FFF742FF2046FFF75DFF204605
:103AF000FFF722FD2046FFF777FF2046FFF792FFF2
:103B00002046FFF781FD2046FFF7ACFF606A02F018
:103B1000A1FCA06A02F09EFCE06A02F09BFC206B14
:103B200002F098FC606B02F095FC606A02F0A7FC62
:103B3000A06A02F0A4FCE06A02F0A1FC206B02F093
:103B40009EFC606B02F09BFCA06B7F2101F074FA7D
:103B5000E06B7F2101F070FA206C7F21BDE81040FE
:103B600001F06ABA806B704700487047DC0800209B
:103B7000004870474809002010B5C0E90013029BB7
:103B80008260C36010BD000000B5ADF66C0D00F0A2
:103B9000BFFD642000F0DEFD264A2749274C59A8C6
:103BA000FEF74EF959A8FEF75DF84422244924A8EF
:103BB00007F0F4FB24A8FFF775FF642000F0CAFDAE
:103BC0001C4914A8FFF753F81E4907A8FFF756FA37
:103BD000194907AACEA8FEF709FC07AB009359AA1A
:103BE00024AB14A935A8FDF7D9F907ABCEAA14A9BF
:103BF000009303A835ABFFF7BFFF4FF47A7000F0D6
:103C0000A9FD114808F0B0F907A8FFF7D1FA4FF461
:103C10008041204601F0EDFF14A8FFF7B5F835A864
:103C2000FDF7D8FBCEA8FFF705F807A8FFF78EFB36
:103C3000EDE700BFC00C0020300C00200008004859
:103C4000F4DE0008B80A002062EF000808B54FF45F
:103C500080410B4801F0CDFF0A4808F085F94FF488
:103C60007A7000F077FDBFF34F8F0749074BCA68A2
:103C700002F4E0621343CB60BFF34F8F00BFFDE758
:103C80000008004875EF000800ED00E00400FA05A8
:103C90000A4B1A6E42F001021A661A6E82B002F0E6
:103CA00001020092009A9A6D42F080529A659B6DD3
:103CB00003F080530193019B02B070470010024053
:103CC00070B5A0B005461422002106A807F074FBC9
:103CD000542200210BA807F06FFB2B68B3F1A04F13
:103CE00063D14FF400430B930BA84FF000531C9388
:103CF00003F0D6FE08B1FFF7A9FF594A1368013354
:103D0000012B1360574B08D1DA6C42F40052DA648D
:103D1000DA6C02F400520192019ADA6C42F001026C
:103D2000DA64DA6C02F001020292029ADA6C42F072
:103D30000202DA64DB6C03F002030393002603241F
:103D4000039B0896012306A94FF09040CDE9063465
:103D500001F07EFE41F602034348089606A9CDE92C
:103D6000063401F075FE414CDFF820C10523C4E99B
:103D700000C34FF0800E4FF48073C4E904E34FF4A6
:103D80008063C4E9063620464FF48053C4E90266D6
:103D9000236201F0EFFC08B1FFF758FF34486C656F
:103DA000A56208F0E1F820B070BD324A934238D1E4
:103DB0004FF400430B930BA84FF000531C9303F0F8
:103DC0006FFE08B1FFF742FF254A13680133012B4C
:103DD000136009D1234BDA6C42F40052DA64DB6CD5
:103DE00003F400530493049B234C244B23602423AB
:103DF0004FF480728021C4E9041263604FF4806242
:103E00000023C4E90233C4E906234FF4805323623C
:103E1000204601F0AFFC08B1FFF718FF6C65A56202
:103E2000C1E7174A9342BED14FF480330B930BA8DE
:103E30004FF000431D9303F033FE08B1FFF706FF78
:103E4000084B104CDA6C42F48042DA64DB6C03F409
:103E500080430593059B0C4B23602723C8E700BFD5
:103E6000500D00200010024000040048540D0020B6
:103E7000A9EF000800010050B40D002030000240FE
:103E800000060050140E0020440002401C000240B6
:103E900010B514228AB0044600210DEB020007F091
:103EA0008BFA2368254A934214D1254BDA6C42F0F1
:103EB0000102DA64DB6C03F001030193019B8022B1
:103EC0000323CDE9052305A94FF0904001F0C0FD83
:103ED0000AB010BD1B4A934210D1194BDA6C42F064
:103EE0000202DA64DB6C03F002030293029B0123FB
:103EF000059303231448069305A9E7E7134A934261
:103F00000CD10F4BDA6C42F00202DA64DB6C03F086
:103F100002030393039B4FF40053E9E70C4A9342D7
:103F2000D6D1074BDA6C42F00202DA64DB6C03F0A4
:103F300002030493049B4FF48043D9E70402014039
:103F4000001002400C020140000400481002014031
:103F50001802014003681D4A934284B00BD11C4BE8
:103F6000DA6C42F48032DA64DB6C03F48033009361
:103F7000009B04B07047174A93420AD1144BDA6C85
:103F800042F40032DA64DB6C03F400330193019BEA
:103F9000EFE7114A93420AD10D4BDA6C42F48022CA
:103FA000DA64DB6C03F480230293029BE1E70B4AA3
:103FB0009342DED1064BDA6C42F40022DA64DB6C09
:103FC00003F400230393039BD3E700BF00080050D2
:103FD00000100240000C005000100050001400506F
:103FE00030B59DB004461422002102A807F0E4F980
:103FF0005422002107A807F0DFF922681B4B9A42E0
:1040000031D1802307A8079303F04AFD08B1FFF7D9
:104010001DFE174CE36C43F00103E364E36C03F013
:10402000010300934FF44072009B1223CDE9022359
:104030000025042302A94FF090400693CDE90455D2
:1040400001F006FDA36D43F48003A365A36D03F4A3
:104050008003019321202A462946019B01F0FCF9A7
:10406000212001F02BFA1DB030BD00BF00580040E8
:104070000010024010B514228AB0044600210DEB56
:10408000020007F099F923682D4A934214D12D4B71
:10409000DA6C42F00102DA64DB6C03F00103009396
:1040A000009B0A2305930323069305A94FF0904034
:1040B00001F0CEFC0AB010BD234A93420BD1214B34
:1040C000DA6C42F00102DA64DB6C03F00103019365
:1040D000019BA023E6E71D4A934210D1194BDA6CED
:1040E00042F00202DA64DB6C03F002030293029BEB
:1040F0000523059303231648069305A9D8E7154A17
:1041000093420CD10F4BDA6C42F00202DA64DB6CA2
:1041100003F002030393039B4FF41053E9E70E4AA5
:104120009342C7D1074BDA6C42F00202DA64DB6CCF
:1041300003F002030493049B4FF44043D9E700BF0C
:104140000003014000100240040301400803014045
:10415000000400480C0301401003014003682B4A8F
:10416000934286B00BD12A4B1A6E42F400621A6653
:104170001B6E03F400630093009B06B07047B3F11D
:10418000804F0BD103F504339A6D42F001029A651A
:104190009B6D03F001030193019BEEE71D4A9342DF
:1041A0000AD11B4B9A6D42F004029A659B6D03F095
:1041B00004030293029BE0E7174A93420AD1144B8F
:1041C0001A6E42F400521A661B6E03F400530393F6
:1041D000039BD2E7114A93420AD10D4B1A6E42F467
:1041E00000321A661B6E03F400330493049BC4E789
:1041F0000B4A9342C1D1064B1A6E42F480121A66E2
:104200001B6E03F480130593059BB6E7002C014059
:10421000001002400008004000340140004401400A
:10422000005001400268084B9A4282B00AD103F55F
:1042300003339A6D42F002029A659B6D03F002030C
:104240000193019B02B070470004004010B5044682
:104250008CB01422002107A807F0AEF823683F4A6B
:10426000934215D13E4B3F48DA6C42F02002DA64AB
:10427000DB6C03F0200301930121019B0223CDE9B4
:10428000071306230B9307A901F0E2FB0CB010BD46
:10429000354A934211D1324BDA6C42F00202DA64B1
:1042A000DB6C03F002030293029B3023079302238B
:1042B00008932E480B9307A9E6E72D4A93420CD1A9
:1042C000274BDA6C42F00202DA64DB6C03F0020383
:1042D0000393039B4FF4C073E8E7264A934226D129
:1042E0001F4B2548DA6C42F00402DA64DA6C02F003
:1042F00004020492049ADA6C42F00202DA64DB6C83
:1043000003F002030593059B02244FF40053CDE90B
:10431000073407A906230B9301F09AFB4FF40073AF
:10432000CDE907340023CDE909330A23C1E7134A55
:104330009342ABD10A4BDA6C42F00102DA64DB6CD7
:1043400003F001030693069B40220223CDE90723D5
:1043500001230B9307A94FF0904095E7002C0140F3
:10436000001002400014004800040040000400480F
:1043700000080040003401400008004800440140AB
:10438000F0B5A1B006461422002106A807F014F8E3
:10439000542200210BA807F00FF83368554A9342C6
:1043A0005DD101230BA80B9303F07AFB08B1FFF753
:1043B0004DFC514B1A6E42F480421A661A6E02F49A
:1043C00080420192019ADA6C42F00102DA64DA6CFE
:1043D00002F001020292029ADA6C42F00202DA64FE
:1043E000DB6C03F00203039300250724039B0A946C
:1043F0004FF48063022706A94FF09040CDE90637BD
:10440000CDE9085501F024FB40233C480A9406A955
:104410003B4CCDE90637CDE9085501F019FB394889
:104420001823C4E900038023C4E9043520464FF46F
:104430008053C4E90255C4E90655236201F09AF994
:1044400008B1FFF703FC00222520F4671146A6629D
:1044500001F002F8252001F031F821B0F0BD2A4A20
:104460009342FAD102230BA80B9303F019FB08B176
:10447000FFF7ECFB204B254C9A6D42F400329A6515
:104480009A6D02F400320492049ADA6C42F001024E
:10449000DA64DB6C03F001030593059B48F2040228
:1044A00002230025CDE9062306A907234FF09040FB
:1044B0000A93CDE9085501F0CBFA15491A23C4E94E
:1044C00000138023C4E9043520464FF48053C4E927
:1044D0000255C4E90655236201F04CF908B1FFF713
:1044E000B5FB00222620F4671146A66200F0B4FF57
:1044F0002620B0E7003801400010024000040048C8
:10450000740E00200800024000440040D40E002039
:1045100008040240FEE7FEE7FEE7FEE7FEE770471D
:104520007047704700F004B9014801F046BA00BF77
:10453000740E0020014801F040BA00BF540D002065
:10454000014801F03ABA00BFB40D0020014801F063
:1045500034BA00BF140E0020014802F0BBB800BFFF
:1045600054240020014801F0A1BE00BFB80A002079
:10457000014804F039BB00BF300C0020014804F0B2
:1045800033BB00BFC00C0020014801F016BA00BFC9
:10459000D40E00200120704708B506F0BDFE16239A
:1045A00003604FF0FF3008BD08B506F0B5FE1623D6
:1045B0000360FEE770B50D4614460E46731B9C4221
:1045C00001DC204670BDAFF3008006F8010BF5E773
:1045D0000138012838B50D4614460FD82146284623
:1045E00006F04CFCC0B20128F8D028B106F094FEC9
:1045F000052303604FF0FF34204638BD06F08CFEE3
:104600000923F6E74FF0FF3070474FF400534B603B
:104610000020704701207047002070470B4A116846
:1046200010B5034609B90A491160106809490A4CD6
:104630000344091B8B4206D906F06EFE0C2303606F
:104640004FF0FF3010BD1360FCE700BF340F0020B7
:10465000782900200000022000040000034AD2F85C
:10466000883043F47003C2F88830704700ED00E0F2
:104670000D4885460D480E490E4A002302E0D458E5
:10468000C4500433C4188C42F9D30B4A0B4C00239A
:1046900001E013600432A242FBD3FFF7DFFF06F014
:1046A00041FEFFF771FAFEE7000002200000002043
:1046B0005403002044F4000854030020782900200B
:1046C000FEE7000038B50F4B0546186808B9012011
:1046D00038BD0D4A4FF47A73B3FBF0F31068B0FBAA
:1046E000F3F000F0F9FE04460028F0D10F2DEED8CB
:1046F000024629464FF0FF3000F0AEFE034B204645
:104700001D60E5E7040000200000002008000020F4
:1047100010B5032000F08EFE0F20FFF7D3FF0446F4
:1047200018B9FFF7B5FA204610BD0124FBE70000D9
:10473000034A0449136809680B441360704700BFBB
:10474000380F002004000020014B1868704700BF9C
:10475000380F002038B50446FFF7F6FF631C1CBF76
:10476000054B1B68054618BFE418FFF7EDFF431B18
:10477000A342FAD338BD00BF0400002030B5CC0DF1
:1047800004F004041430C1F30451235807258D406C
:1047900023EA050302FA01F10B43235030BD806880
:1047A000C0F380007047000073B5002301930446F6
:1047B000002800F0FB80C56D25B9FFF781FA25665A
:1047C00084F8585020688368990041BF836823F0BB
:1047D000204323F03F0383608368DA0040F1A28026
:1047E0008368DB0000F1B580E36D43F01003E365FF
:1047F000236E43F0010323660121FFF7D0FFE36D31
:1048000003F010030343E36D40F0CD8023F4817384
:1048100043F002032068E3658368DE070ED4B0F13D
:10482000A04F634A02D0904240F095804FF0A043E1
:104830009D6893682B43DD0740F19B80E568E36B3F
:1048400094F824202B43A5682B43657F012A43EA73
:10485000453343EA024302BFA26A02F1FF3243EA50
:104860004243E26A22B1256B02F478722A43134371
:10487000C568504A2A401343C3600369626B23F042
:10488000406313430361FFF78AFF23689A6802F0CD
:10489000080202432ED1D86894F83820257F266973
:1048A000520020F4804042EA853220F002000243A8
:1048B000DA60414D1869002E6AD040F480301861EA
:1048C000D3F8C0202A403243C3F8C02094F84020D7
:1048D000012A64D1D4E91125186920F4FF6020F081
:1048E00004002A430243E06C0243206D024342F07D
:1048F00001021A616269012A05BF186B226A1A6BEC
:1049000002F1FF3206BF20F00F00024322F00F0237
:104910001A63E36D23F0030343F00103E3650846E4
:1049200002B070BD8368254A23F0104323F03F0393
:1049300043F080538360224B1B68B3FBF2F30133D7
:104940005B000193019B002B3FF44AAF019B013BAD
:10495000F7E7002151E71B4B1B4A9D6803F5807365
:104960009B6892682B431343DB073FF567AF174BF8
:1049700007E0B0F1A04F164B03D0144D904218BF82
:104980002B469A68656822F47C122A439A6055E7A0
:1049900020F480301861D3F8C0202A4094E71A69C7
:1049A00022F00102A5E743F01003E3650121B6E719
:1049B000000100500740F0FF00C0FFFF400D030062
:1049C00000000020000400500006005000070050C6
:1049D000000300507047704708B5806AFFF7FBFF7F
:1049E00008BD7047836ADA6D12F0500F10B5DA6DAA
:1049F00021D142F40072DA651A681168080716D5E9
:104A0000D16811F4406F0ED1D26812F4005F0AD160
:104A1000DA6D22F48072DA65DA6DD1045EBFDA6D88
:104A200042F00102DA651846FFF7D4FF10BDD268E4
:104A300012F0020FEBE7D20603D51846FFF7D1FFBD
:104A4000F4E75B6DBDE810405B6B1847806A08B502
:104A5000C36D43F04003C365036E43F00403036674
:104A6000FFF7BFFF08BD0000F7B50023019390F8E2
:104A70005830012B05460C4600F0DB81012380F8FD
:104A800058300068FFF78BFE002840F0CC814A6860
:104A900028682368910900F1300701F00C0102F049
:104AA0001F02CE594FF01F0CC3F3846393400CFADE
:104AB00002F226EA02021343CB51FFF770FE0646CC
:104AC0002868836803F008031E433CD1A26821686C
:104AD000B2F1004F79D13246FFF750FE2A68536990
:104AE00043F000435361276928682168C268042F96
:104AF00000F1600370D0C2F3C1025000626953F844
:104B000027C08240AE4801F0F8410CEA000008439B
:104B1000024342F0004243F827202169A06953F87C
:104B2000212022F08072024343F821202269217F54
:104B300053F82200012908BF4FF0007620F00070E2
:104B4000064343F8226028688368DE0700F19F80EF
:104B5000E1689C4A23689142C3F3120640F09180B9
:104B6000D0F8B0203243C0F8B020002E00F0998079
:104B700093FAA3F23AB1B2FA82F2013202F01F02C2
:104B8000092A00F2AE8093FAA3F2B2FA82F201325D
:104B9000920602F0F84293FAA3F1B1FA81F10131E1
:104BA00001F01F070121B9400A43002E40F0948014
:104BB0009B0E013303F01F0303EB43031B0542EA83
:104BC0000301A268FFF7DAFD61E0FFF7D7FD2A686D
:104BD000536923F0004385E7026E026EC1F31206AB
:104BE000C2F38462002E38D1C1F384618A4202BFCD
:104BF000026E22F0004202665A6822685968C2F3C7
:104C00001200C1F3846168BBC2F38462914202BFA7
:104C10005A6822F000425A609A6822689968C2F382
:104C20001200C1F3846110BBC2F38462914202BFDF
:104C30009A6822F000429A60DA682268D968C2F362
:104C40001200C1F38461B8B9C2F38462914202BF19
:104C5000DA6822F00042DA6075E791FAA1F1B1FA60
:104C600081F1C3E792FAA2F2B2FA82F2CEE792FAA7
:104C7000A2F2B2FA82F2D9E792FAA2F2B2FA82F280
:104C8000E4E7D0F8B03023EA0606C0F8B060226846
:104C90004D4B1A4244D10020002385F8583003B010
:104CA000F0BD9A0E013202F01F0701219206092F72
:104CB00002F0F84201FA07F17FF676AF0A4316BB1D
:104CC0009E0E013606F01F0606EB46011E39090549
:104CD00041F00071114374E793FAA3F3B3FA83F33D
:104CE00067E793FAA3F2B2FA82F20132920602F077
:104CF000F84293FAA3F1B1FA81F1013101F01F07F3
:104D00000121B940DAE793FAA3F1B1FA81F1013157
:104D100001F01F036FF01D06032111FB0361D6E7AD
:104D20002B68B3F1A04F2ED0284C29492948A34223
:104D300018BF0146284C8868A24200F0E07102D0FA
:104D4000264CA24223D1040221D4B3F1A04F1CD09F
:104D5000234A93429FD102F58072936823F0E07357
:104D60000B4343F4000393601E4B1F4A1B68B3FBC5
:104D7000F2F20C2302FB03330193019B002B8AD038
:104D8000019B013BF8E71249D4E7114AE5E7174CCC
:104D9000A2422DD1C2013FF57EAFB3F1A04F0DD09D
:104DA0000A4C0B4A0B48A34218BF0246936823F0F3
:104DB000E0730B4343F0807393606CE7044AF5E7BC
:104DC00000F0FF0300007F40000008800001005059
:104DD0000003005000070050000021C31000C090E5
:104DE0000006005000000020400D0300000052C7E4
:104DF000114CA2427FF44FAF10F480007FF44BAF10
:104E00000E4A93423FF447AF0D4C02F50072B3F1E6
:104E1000A04F18BF2246936823F0E0730B4343F47E
:104E20008003936038E7EA6D42F02002EA65184695
:104E300032E7022033E700BF000084CB00010050BE
:104E4000000700500268936870B50446D80701D582
:104E5000002070BD9168164B194209D0E36D43F0F4
:104E60001003E365236E43F0010323660120F0E79E
:104E70009368104D2B4043F001039360FFF764FCEF
:104E8000064622681368DB07E2D49368D9075FBF40
:104E900093682B4043F001039360FFF755FC801BA0
:104EA0000228EED923681B68DA07EAD4D6E700BFE8
:104EB0003F000080C0FFFF7FF8B504460068B0F1F6
:104EC000A04F0E46174663D03849394B394A8842BD
:104ED00008BF13469D68FFF762FC002863D194F871
:104EE0005820012A5FD00123226884F85830324BC1
:104EF0009A4205F01F0506D0092D4FD840F2212314
:104F0000EB40DB074AD52046FFF79CFF002841D144
:104F1000E06D2168254B20F4706020F0010040F422
:104F200080709942E06503D003F58063994200D117
:104F30001DB9E36D23F48013E365E36D606D13F435
:104F400080531CBF236E23F0060323661B4BC362F2
:104F50001B4B03631B4B43631C230B60002384F830
:104F600058304B6843F010034B60CB6843F00103AB
:104F7000CB6032463B46403100F06EFC22689368BD
:104F800023F0004323F03F0343F004039360F8BD94
:104F9000084B9FE7002384F85830F8E7002384F893
:104FA00058300120F3E70220F1E700BF0001005074
:104FB000000700500003005000060050E5490008BB
:104FC000D94900084D4A0008026838B593689168CD
:104FD0000446C80701D4002038BD9907FBD4936864
:104FE00003F00D03012B19D1936823F0004323F044
:104FF0003F0343F00203936003231360FFF7A4FB16
:10500000054623689B68DB07E5D5FFF79DFB401B42
:105010000228F6D923689B68DA07F2D5E36D43F0DE
:105020001003E365236E43F0010323660120D3E7F9
:105030008068C0F38000704773B50023019390F837
:105040005830012B04460D463ED0012380F85830DD
:10505000FFF7BAFF002833D1E26D266822F48852A8
:1050600022F0020242F00202E265B368174A23F01E
:10507000404323F03F0305F080452B4343F00043BA
:10508000B360B368002B11DA019B01330193019BDC
:105090009342F6D9E36D23F0120343F01003E36566
:1050A000002384F85830012002B070BDE36D23F076
:1050B000030343F00103E365002384F85830F3E76A
:1050C000E36D43F01003F6E70220EDE701DE040094
:1050D000F0B590F85830012B9DB0024600F090805A
:1050E000012380F8583000680023B0F1A04F1893D6
:1050F00019930CD1434B0193019868B9D36D82F891
:10510000580043F02003D36501201DB0F0BD3E4C94
:10511000A04208BF3D4BEEE7FFF78AFF0346106849
:10512000FFF786FF034365D11368B3F1A04F26D084
:10513000344D374C3748AB4218BF20460C68002C22
:1051400033D0866892F838704D6826F4604645EA98
:1051500047353543B3F1A04F85602A4D01D0AB42AE
:105160000FD14FF0A0439E68AB683343DB4303F09D
:10517000010383B90020002382F85830C5E7254891
:10518000DCE7214B244D9E6803F580739B68AD6876
:1051900033432B43EAE78368896823F471630C4344
:1051A00023F00F031C438460E4E78168B3F1A04F50
:1051B00021F460418160134901D08B4210D14FF03E
:1051C000A0439C688B682343DB4303F00103002B5F
:1051D000D0D0836823F4716323F00F038360C9E7A1
:1051E000094B0D499C6803F580739B6889682343CC
:1051F0000B43E9E7D36D43F02003D3650120BAE701
:10520000022082E700010050000400500005005019
:10521000000700500003005000060050F7B50023BF
:1052200001930446002800F0F08003681B68002BFF
:10523000C0F2EB80427F02F0FF031AB903770362EA
:10524000FEF726FED4E90123134362692168134364
:10525000E26808680D681343226913436D4A2A40C7
:1052600013430B600B681A023AD46B4B6B4899429C
:1052700047D14FF40012A669694B16F0030F00F0F6
:10528000AA80F7065ED5814202D0664DA94255D16B
:105290009D6A15439D62B50666D5814202D0614D77
:1052A000A9425CD1DD6A15438142DD6202D05D4DC9
:1052B000A94257D15A63B70767D5814202D0594DE9
:1052C000A9425ED15D6A15435D62F5076ED58142E4
:1052D00002D05448814265D1196A0A431A626FE0CC
:1052E0000302C2D4504B514A1B68B3FBF2F21423A1
:1052F00002FB03330193019B002BB6D0019B013BC2
:10530000F8E74B4B99420DD0043399420DD004334A
:1053100099420DD0043399420DD081420CBF012235
:105320000222A8E74FF48002A5E74FF00052A2E75F
:105330004FF080429FE74FF000429CE79D68154385
:105340009D60A8E781426FEA020502D0354FB9425D
:1053500002D19F6A3D409DE79F683D40F0E7DD68D0
:105360001543DD605A61A6E781426FEA020502D06B
:105370002C4FB94202D1DF6A3D4095E7DF683D40DE
:10538000EFE75D6815435D609FE781426FEA0207C2
:1053900002D0244DA94202D15D6A3D4094E75D6888
:1053A0003D40F0E719680A431A6009E081426FEA5C
:1053B000020502D01B4A91420AD1196A294019629A
:1053C000637F03F0FF0013BB0123637703B0F0BDDD
:1053D0001A682A40E8E781426FEA020202D0114DC2
:1053E000A94208D15D6A814205EA02055D6208D1E1
:1053F000196A0A4072E759681140596019680A40F1
:10540000D2E708488142F3D0F8E70120DEE7002028
:10541000DCE700BF0F7E00FF0002014014020140E4
:10542000000401401802014000000020400D03006C
:10543000040201400749CA6822F4E0620302120430
:1054400003F4E063120C134343F0BF6343F40033EF
:10545000CB60704700ED00E0164B30B5DC68C4F35C
:105460000224C4F10705231D042D28BF0425062BA3
:105470004FF0FF338CBF033C002403FA05F521EA0B
:105480000501A34022EA0302A140002841EA0203E9
:10549000ACBF00F16040084A4FEA0313B8BF00F008
:1054A0000F00DBB2AABF00F56140135480F800334F
:1054B00030BD00BF00ED00E014ED00E0002808DB87
:1054C0000123420900F01F0003FA00F0014B43F8EA
:1054D0002200704700E100E00138B0F1807F0BD27C
:1054E0004FF0E023054A5861F02182F82310002094
:1054F000072298611A6170470120704700ED00E0B3
:1055000010B5044668B1037903F0FF0213B9427184
:10551000FEF720FD02232371002001232061237167
:1055200010BD0120FCE700002DE9F041154642794D
:105530008B68012A04460E464FF002001FD001225C
:10554000042B627120713CD1FFF7FEF80746C5B10C
:1055500023685B6B002BC0F2B6800120FFF7FAF8DE
:105560002368726A5A6416E0FFF7EEF8C01B012840
:1055700007D92369032043F0080323612071BDE8A4
:10558000F08123685B6B1B04EED40120FFF7E2F887
:105590002368726A1A64216805F010008A6C40F270
:1055A000FF33834022EA0302B36A83401A438A64CA
:1055B000CB6CFF22824023EA0203F26A824013434B
:1055C000CB64F3692268012B05F0100508D1936BB9
:1055D0001F21A94023EA0101336AAB400B439363C7
:1055E000D36BD6E905200727AF4001286FEA0701F2
:1055F00070D0022871D0B2FA82F84FEA5818B06819
:105600004FF48077024307FA05F03779012F4FF402
:10561000007707FA05F723EA0707737942EA0802D9
:105620000CBF4FF480784FF00008012B336807EA75
:10563000010748EA020227EA00070CBF4FF400788E
:105640004FF00008022B48EA020827F440474DD1EA
:1056500002F0FCF9264B984242D947F400472168F2
:1056600008FA05F848EA0707CF630B684FF4804251
:10567000AA4023EA02030B600A68F36840F6FE7052
:10568000A84022EA000003FA05F202430A600A6811
:10569000C020A84022EA00020A60C3F383023369F3
:1056A000086E9B0103F47063134340F60F72AB4026
:1056B00002FA05F520EA05051D43002001230D66C9
:1056C000237160715BE7FFF73FF8C01B01287FF68D
:1056D0003FAF4EE74FF0000891E74FF001088EE72B
:1056E000044B9842BBD947F48047B8E71F43B6E75D
:1056F0000068890900B4C40470B5D0E91345656039
:10570000446D14B1D0E916456560D0E9105404F039
:105710001F060124B4406C60046863608368102B2A
:105720000BBFA260A160E160E26070BD03680D493B
:105730000D4A10B50D4CA34288BF0A46416C21F0BA
:1057400003010A448264DBB2094AC264083B1422A2
:10575000B3FBF2F3012203F01F0302FA03F3036524
:1057600010BD00BF200802400008024007040240AC
:105770008008024010B500285ED001682F4B994286
:105780004FF014044BD82E4A0A44B2FBF4F29200B4
:105790004264A3F207430364022380F82530D0E972
:1057A0000234234304690A68234344692343846918
:1057B0002343C4692343046A22F4FF4222F07002A7
:1057C000234313430B60FFF7B1FF8368816CB3F58C
:1057D000804F04BF002343604268D3B20B60D0E91E
:1057E0001314013A032A4C6021D8164A16498165E0
:1057F0001A44013B9200012103F01F0301FA03F355
:1058000000214265C3651160104A536400230122E0
:10581000C36380F8243080F82520184610BD0C4B57
:105820000B44B3FBF4F39B0043640A4BB3E7002340
:10583000C0E91533C365E9E70120EFE7070402403B
:10584000F8FFFDBF3F8200104009024000090240FE
:10585000F8FBFDBF0004024070B590F82450012D04
:10586000044639D0012580F8245090F82550012DA8
:105870004FF000064FF002052CD180F82550C6638A
:105880000668356825F001053560FFF735FF026BC6
:105890000368BAB11A6842F00E021A60A26C11686D
:1058A000C90342BF116841F480711160626D1AB181
:1058B000116841F4807111601A6842F001021A60A7
:1058C000002070BD1A6822F004021A601A6842F0C3
:1058D0000A02E2E780F824600220F2E790F825202F
:1058E000022A034609D00422C2630120012283F860
:1058F0002520002283F8242070470268806C1168FC
:1059000021F00E011160016821F4807101601168BD
:1059100021F001011160D3E9100202F01F01012200
:105920008A404260D3E91321586D51600028DDD0D0
:10593000026822F480720260D3E9162100205160CF
:10594000D4E710B590F82530022B09D00423C363A7
:105950000022012380F8253080F8242018462BE00F
:1059600003681A6822F00E021A601A6822F0010217
:105970001A60826C136823F480731360D0E91013EB
:1059800003F01F02012393404B60D0E913325A60A9
:10599000436D33B11A6822F480721A60D0E916326E
:1059A0005A60012380F82530836B002480F824405E
:1059B000002BD3D09847204610BD016C426C036881
:1059C00070B402F01F020E681D6804249440344233
:1059D0000ED015F0040F0BD01A6892065EBF1A683D
:1059E00022F004021A60036B4C6073B370BC18475A
:1059F00002249440344212D015F0020F0FD01A68DE
:105A0000950606D41A6822F00A021A60012380F86B
:105A1000253000234C6080F82430C36AE5E7082471
:105A20009440344211D02C070FD51C6824F00E048A
:105A30001C60012303FA02F24A60C36380F8253038
:105A4000002380F82430436BCFE770BC7047000020
:105A50002DE9F74FDFF88C91604C00230A6832FA89
:105A600003F502D103B0BDE8F08F012505FA03FE6E
:105A70001EEA020200F0A5804E6806F003054FEA18
:105A800043084FF0030C6F1E0CFA08FC012F6FEA5D
:105A90000C0C34D8876807EA0C0ACF6807FA08F7B5
:105AA00047EA0A078760476827EA0E0EC6F3001721
:105AB0009F4047EA0E074760C76807EA0C0E8F68E9
:105AC00007FA08F747EA0E07022DC76019D14FEA17
:105AD000D30A00EB8A0A03F0070BDAF820704FEACA
